:020000040800F2
:1000000060060020A1010008A9010008AB0100085A
:10001000AD010008AF010008B101000800000000B8
:10002000000000000000000000000000B301000814
:10003000B501000800000000B7010008B901000880
:10004000BB010008BB010008BB010008BB010008A0
:10005000BB010008BB010008BB010008BB01000890
:10006000BB010008BB010008BB010008BB01000880
:10007000BB010008BB010008BB010008BB01000870
:10008000BB010008BB010008BB0100080000000024
:10009000000000000000000000000000BB0100089C
:1000A000BB010008BB010008BB010008BB01000840
:1000B000BB010008BB010008BB010008BB01000830
:1000C000BB010008BB010008BB010008BB01000820
:1000D000BB010008BB010008BB010008BB01000810
:1000E000BB010008BB010008BB01000800000000C4
:1000F0000000000000000000000000000000000000
:1001000000000000000000000000000000000000EF
:100110000000000000000000BB010008BB01000857
:1001200000F002F800F02CF80AA090E8000C8244DD
:100130008344AAF10107DA4501D100F021F8AFF2BA
:10014000090EBAE80F0013F0010F18BFFB1A43F0B5
:100150000103184790040000A004000000230024BD
:1001600000250026103A28BF78C1FBD8520728BFC7
:1001700030C148BF0B6070471FB51FBD10B510BD23
:1001800000F031F81146FFF7F7FF00F017FA00F022
:100190004FF803B4FFF7F2FF03BC00F057F800007C
:1001A0000948804709480047FEE7FEE7FEE7FEE70B
:1001B000FEE7FEE7FEE7FEE7FEE7FEE70448054947
:1001C000054A064B70470000110500082101000890
:1001D0006000002060060020600200206002002015
:1001E000704770477047754600F02CF8AE46050022
:1001F0006946534620F00700854618B020B5FFF742
:10020000DDFFBDE820404FF000064FF000074FF043
:1002100000084FF0000B21F00701AC46ACE8C00924
:10022000ACE8C009ACE8C009ACE8C0098D4670472D
:1002300010B50446AFF300802046BDE81040FFF73C
:10024000A8BF0000004870470000002001491820A6
:10025000ABBEFEE72600020070472DE9F0410246E2
:1002600000250026002000230024002791F803C069
:100270000CF00F0591F803C00CF0100CBCF1000F4E
:1002800003D091F802C04CEA050591F800C0BCF11A
:10029000000F31D0146800202BE04FF0010C0CFA55
:1002A00000F3B1F800C00CEA03069E4220D183009F
:1002B0004FF00F0C0CFA03F7BC4305FA03FC4CEAB1
:1002C000040491F803C0BCF1280F06D14FF0010CD3
:1002D0000CFA00FCC2F814C00AE091F803C0BCF1AB
:1002E000480F05D14FF0010C0CFA00FCC2F810C009
:1002F000401C0828D1D31460B1F800C0BCF1FF0F36
:1003000034DD546800202EE000F1080C4FF00108A5
:1003100008FA0CF3B1F800C00CEA03069E4221D1A2
:1003200083004FF00F0C0CFA03F7BC4305FA03FCF3
:100330004CEA040491F803C0BCF1280F05D100F188
:10034000080C08FA0CF8C2F8148091F803C0BCF14C
:10035000480F07D100F1080C4FF0010808FA0CF81B
:10036000C2F81080401C0828CED35460BDE8F0814C
:10037000416170470161704708B50121082000F014
:1003800033F810208DF803000120ADF800000320A1
:100390008DF8020069460248FFF75FFF08BD0000C4
:1003A000000C01404CF6CC40014908607047000049
:1003B000003000404AF6AA2001490860704700005A
:1003C00000300040014948607047000000300040A4
:1003D0000149886070470000003000400149086012
:1003E000704700000030004029B1064A926902437C
:1003F000044B9A6104E0034A92698243014B9A617B
:10040000704700000010024010B501460022002392
:1004100000204A11012A02D1094C236806E0022A71
:1004200002D1074C236A01E0054C636A01F01F0208
:10043000012494401C400CB1012000E0002010BDBC
:1004400000100240014908607047000080044242E9
:1004500010B500F001F810BD0CB50020019000901F
:100460002A48006840F480302849086000BF2748C7
:10047000006800F4003000900198401C0190009842
:1004800018B90198B0F5A06FF1D12048006800F4C8
:10049000003010B10120009001E000200090009891
:1004A000012831D119484068184948600846406819
:1004B00048600846406848600846406820F47C1060
:1004C00048600846406840F4981048600846006854
:1004D00040F08070086000BF0C48006800F00070B9
:1004E0000028F9D00948406820F003000749486017
:1004F0000846406840F00200486000BF034840687A
:1005000000F00C000828F9D10CBD000000100240DA
:1005100010B51448006840F0010012490860084610
:100520004068114908400F494860084600680F4973
:1005300008400C4908600846006820F480200860E4
:100540000846406820F4FE0048604FF41F008860B1
:100550000020C862FFF77CFF4FF00060044908608C
:1005600010BD0000001002400000FFF8FFFFF6FE83
:1005700008ED00E000EB4002D10000BF0A1EA1F12F
:100580000101FBD1704710B50120FFF75BFF00BFF1
:100590006120FFF739FF0028FAD045F25550FFF7E8
:1005A0001DFF0020FFF70EFF40F6FF70FFF710FF62
:1005B000FFF700FFFFF7F6FE10BD0000FFF7DCFEBF
:1005C00001210748FFF7D4FE40F6B830FFF7D2FF0D
:1005D00001210348FFF7CEFEFFF7D5FF00BFFEE77E
:1005E000000C0140F4050008000000206006000037
:0405F0005C010008A2
:04000005080001A14D
:00000001FF
